:100000000C945D000C9485000C9485000C94850084
:100010000C9485000C9485000C9485000C9485004C
:100020000C9485000C9485000C9485000C9485003C
:100030000C9485000C9485000C9485000C9485002C
:100040000C9428020C9485000C9498020C94720273
:100050000C9485000C9485000C9485000C9485000C
:100060000C9485000C9485000000000024002700FB
:100070002A0000000000250028002B0004040404CE
:100080000404040402020202020203030303030342
:10009000010204081020408001020408102001021F
:1000A00004081020000000080002010000030407FB
:1000B00000000000000000007C0411241FBECFEFF0
:1000C000D8E0DEBFCDBF11E0A0E0B1E0E6E3FDE0A7
:1000D00002C005900D92A031B107D9F721E0A0E14F
:1000E000B1E001C01D92A73AB207E1F710E0CDE5FB
:1000F000D0E004C02197FE010E94C904CC35D1078D
:10010000C9F70E94D8020C9499060C940000E1EB08
:10011000F0E02491EDE9F0E09491E9E8F0E0E49179
:10012000EE2309F43BC0222339F1233091F038F457
:100130002130A9F0223001F524B52F7D12C02730DF
:1001400091F02830A1F02430B9F4209180002F7D67
:1001500003C0209180002F77209380000DC024B52C
:100160002F7724BD09C02091B0002F7703C02091C4
:10017000B0002F7D2093B000F0E0EE0FFF1FEE588F
:10018000FF4FA591B4912FB7F894EC91811103C062
:1001900090959E2301C09E2B9C932FBF08953FB73F
:1001A000F8948091A3019091A401A091A501B09130
:1001B000A60126B5A89B05C02F3F19F00196A11DE9
:1001C000B11D3FBFBA2FA92F982F8827820F911DED
:1001D000A11DB11DBC01CD0142E0660F771F881F34
:1001E000991F4A95D1F708958F929F92AF92BF922F
:1001F000CF92DF92EF92FF926B017C010E94CF00C1
:100200004B015C01C114D104E104F104F1F00E943E
:10021000CF00DC01CB0188199909AA09BB09883EE6
:100220009340A105B10570F321E0C21AD108E1089D
:10023000F10888EE880E83E0981EA11CB11CC11441
:10024000D104E104F10419F7DDCFFF90EF90DF90C6
:10025000CF90BF90AF909F908F900895CF92DF92F4
:10026000EF92FF920F931F93CF93DF936C017A016C
:100270008B01C0E0D0E0CE15DF0589F0D8016D918B
:100280008D01D601ED91FC910190F081E02DC60128
:100290000995892B11F47E0102C02196ECCFC7018C
:1002A000DF91CF911F910F91FF90EF90DF90CF9052
:1002B0000895FC01918D828D981779F0828DDF0170
:1002C000A80FB11D5D962C91828D8F5F61E10E9418
:1002D000A904928F822F90E008958FEF9FEF0895E9
:1002E000FC01918D828D981731F0828DE80FF11D00
:1002F000858D90E008958FEF9FEF0895FC01918D1B
:10030000228D892F90E04196821B910961E170E076
:100310000E94B504089580E391E00E947E0121E0EF
:10032000892B09F420E0822F0895FC01848DDF01E0
:10033000A80FB11D9E962C91848D90E001968F732D
:100340009927848FA689B7892C93A089B1898C912C
:1003500080648C93938D848D981306C00288F389F2
:10036000E02D80818F7D80830895EF92FF920F931F
:100370001F93CF93DF93EC0181E0888F9B8D8C8D51
:10038000981305C0E889F989808185FD22C0F62E81
:100390000B8D10E00F5F1F4F0F731127E02E8C8D18
:1003A000E8120CC00FB607FCFACFE889F989808102
:1003B00085FFF5CFCE010E949501F1CF8B8DFE0117
:1003C000E80FF11DF6A60B8FEA89FB898081806218
:1003D00007C0EE89FF896083E889F989808180649C
:1003E000808381E090E0DF91CF911F910F91FF908A
:1003F000EF900895CF93DF93EC01888D8823C9F0A7
:10040000EA89FB89808185FD05C0A889B9898C911D
:1004100086FD0FC00FB607FCF5CF808185FFF2CFB8
:10042000A889B9898C9185FFEDCFCE010E949501F5
:10043000E7CFDF91CF91089580E090E0892B29F0FC
:100440000E948B0181110C94000008950E94E20526
:100450001F920F920FB60F9211242F933F938F93F9
:100460009F93AF93BF9380919F019091A001A09122
:10047000A101B091A20130919E0123E0230F2D37FD
:1004800020F40196A11DB11D05C026E8230F029698
:10049000A11DB11D20939E0180939F019093A00107
:1004A000A093A101B093A2018091A3019091A40116
:1004B000A091A501B091A6010196A11DB11D809347
:1004C000A3019093A401A093A501B093A601BF91AD
:1004D000AF919F918F913F912F910F900FBE0F90F1
:1004E0001F9018951F920F920FB60F9211242F9301
:1004F0003F934F935F936F937F938F939F93AF93AC
:10050000BF93EF93FF9380E391E00E949501FF91E9
:10051000EF91BF91AF919F918F917F916F915F917B
:100520004F913F912F910F900FBE0F901F901895F4
:100530001F920F920FB60F9211242F935F936F9318
:100540007F938F939F93AF93BF93EF93FF93E0912C
:100550004001F09141018081E0914601F091470115
:1005600082FD16C020818091490190E0019661E1F1
:1005700070E00E94B50490914A01981751F0E09103
:100580004901F0E0E05DFE4F258F8093490101C0F5
:100590008081FF91EF91BF91AF919F918F917F915A
:1005A0006F915F912F910F900FBE0F901F90189534
:1005B000789484B5826084BD84B5816084BD85B53E
:1005C000826085BD85B5816085BD80916E0081604A
:1005D00080936E00109281008091810082608093F0
:1005E00081008091810081608093810080918000F2
:1005F0008160809380008091B10084608093B1001D
:100600008091B00081608093B00080917A00846016
:1006100080937A0080917A00826080937A00809142
:100620007A00816080937A0080917A00806880935C
:100630007A001092C100E0914001F091410182E006
:100640008083E0913C01F0913D011082E0913E01F8
:10065000F0913F0183E3808310924801E0914401CF
:10066000F091450186E08083E0914201F0914301E1
:10067000808180618083E0914201F091430180811B
:1006800088608083E0914201F0914301808180681D
:100690008083E0914201F091430180818F7D8083CE
:1006A000EDE9F0E02491E9E8F0E08491882399F005
:1006B00090E0880F991FFC01E859FF4FA591B49174
:1006C000FC01EE58FF4F859194918FB7F894EC910F
:1006D000E22BEC938FBF64E670E080E090E00E9434
:1006E000F40085B185B960ED77E080E090E00E948C
:1006F000F40085B185B980E391E00E947E0118166F
:1007000019060CF0E2C080E391E00E9459018F3F8E
:1007100091F7C0E2D1E02FB7F89480919F019091BA
:10072000A001A091A101B091A2012FBF8093380137
:1007300090933901A0933A01B0933B01E0913001CD
:10074000F09131010680F781E02D80E391E0099579
:1007500097FD95C0899381E0C033D807E1F6809179
:10076000200190912101A0912201B0912301809359
:100770001C0190931D01A0931E01B0931F01809155
:10078000240190912501A0912601B0912701809329
:10079000180190931901A0931A01B0931B01809145
:1007A000280190912901A0912A01B0912B018093F9
:1007B000140190931501A0931601B0931701609155
:1007C0002C0110912D01D0912E01C0912F0170E0CC
:1007D00080E090E00E94E90523E333E343EF5FE329
:1007E0000E943C0520E030E04EEF52E40E94CF042E
:1007F0000E94AE0560931301612F70E080E090E0ED
:100800000E94E90523E333E343EF5FE30E943C05E5
:1008100020E030E04EEF52E40E94CF040E94AE058B
:10082000609312016D2F70E080E090E00E94E90576
:1008300023E333E343EF5FE30E943C0520E030E035
:100840004EEF52E40E94CF040E94AE056093110166
:100850006C2F70E080E090E00E94E90523E333E331
:1008600043EF5FE30E943C0520E030E04EEF52E4AE
:100870000E94CF040E94AE05609310013CCF2FB7B9
:10088000F89480919F019091A001A091A101B09155
:10089000A2012FBF409138015091390160913A0176
:1008A00070913B01841B950BA60BB70B4091340153
:1008B0005091350160913601709137018417950789
:1008C000A607B70708F43ACF4ACF20E030E0A901E5
:1008D000609114017091150180911601909117019A
:1008E0000E94DD05181614F481E001C080E00E942A
:1008F00087000E941C02FFCEE0E3F1E01382128227
:1009000088EE93E0A0E0B0E084839583A683B7836C
:1009100084E091E09183808385EC90E095878487E3
:1009200084EC90E09787868780EC90E0918B808BB9
:1009300081EC90E0938B828B82EC90E0958B848BA2
:1009400086EC90E0978B868B118E128E138E148E10
:100950000895991B79E004C0991F961708F0961B1B
:10096000881F7A95C9F780950895AA1BBB1B51E192
:1009700007C0AA1FBB1FA617B70710F0A61BB70B0F
:10098000881F991F5A95A9F780959095BC01CD01B4
:100990000895EE0FFF1F0590F491E02D0994505833
:1009A000BB27AA270E94E7040C945F060E94510609
:1009B00038F00E94580620F039F49F3F19F426F4CD
:1009C0000C944E060EF4E095E7FB0C944806E92FD4
:1009D0000E94700658F3BA176207730784079507D9
:1009E00020F079F4A6F50C9492060EF4E0950B2E07
:1009F000BA2FA02D0B01B90190010C01CA01A00171
:100A00001124FF27591B99F0593F50F4503E68F1CB
:100A10001A16F040A22F232F342F4427585FF3CF0C
:100A2000469537952795A795F0405395C9F77EF4DD
:100A30001F16BA0B620B730B840BBAF09150A1F026
:100A4000FF0FBB1F661F771F881FC2F70EC0BA0FAC
:100A5000621F731F841F48F4879577956795B79534
:100A6000F7959E3F08F0B0CF9395880F08F099272F
:100A7000EE0F9795879508950E9450050C945F0698
:100A80000E94580658F00E94510640F029F45F3F3A
:100A900029F00C94480651110C9493060C944E06C0
:100AA0000E94700668F39923B1F3552391F3951BC7
:100AB000550BBB27AA2762177307840738F09F5F7F
:100AC0005F4F220F331F441FAA1FA9F335D00E2EEC
:100AD0003AF0E0E832D091505040E695001CCAF759
:100AE0002BD0FE2F29D0660F771F881FBB1F26171C
:100AF00037074807AB07B0E809F0BB0B802DBF01F3
:100B0000FF2793585F4F3AF09E3F510578F00C94C1
:100B100048060C9493065F3FE4F3983ED4F3869521
:100B200077956795B795F7959F5FC9F7880F911DE2
:100B30009695879597F90895E1E0660F771F881FCE
:100B4000BB1F621773078407BA0720F0621B730B81
:100B5000840BBA0BEE1F88F7E09508950E94780683
:100B600088F09F5798F0B92F9927B751B0F0E1F06E
:100B7000660F771F881F991F1AF0BA95C9F714C01E
:100B8000B13091F00E949206B1E008950C94920663
:100B9000672F782F8827B85F39F0B93FCCF3869557
:100BA00077956795B395D9F73EF4909580957095B4
:100BB00061957F4F8F4F9F4F08950E94240608F440
:100BC0008FEF089581E090E0F8940C949906E894F2
:100BD00009C097FB3EF490958095709561957F4F85
:100BE0008F4F9F4F9923A9F0F92F96E9BB27939533
:100BF000F695879577956795B795F111F8CFFAF443
:100C0000BB0F11F460FF1BC06F5F7F4F8F4F9F4F73
:100C100016C0882311F096E911C0772321F09EE8D1
:100C2000872F762F05C0662371F096E8862F70E037
:100C300060E02AF09A95660F771F881FDAF7880F11
:100C40009695879597F90895990F0008550FAA0B67
:100C5000E0E8FEEF16161706E807F907C0F01216CF
:100C60001306E407F50798F0621B730B840B950BD2
:100C700039F40A2661F0232B242B252B21F4089527
:100C80000A2609F4A140A6958FEF811D811D0895C4
:100C900097F99F6780E870E060E008959FEF80EC2F
:100CA000089500240A9416161706180609060895D2
:100CB00000240A9412161306140605060895092E38
:100CC0000394000C11F4882352F0BB0F40F4BF2BA7
:100CD00011F460FF04C06F5F7F4F8F4F9F4F0895E7
:100CE00057FD9058440F551F59F05F3F71F04795DD
:100CF000880F97FB991F61F09F3F79F087950895C2
:100D0000121613061406551FF2CF4695F1DF08C0E0
:100D1000161617061806991FF1CF869571056105FD
:100D200008940895E894BB2766277727CB0197F9A5
:060D30000895F894FFCFC6
:100D360000000000B5012E017E0159017001FA0183
:00000001FF
